:100000000C942A000C9441000C946B000C94950005
:100010000C943F000C943F000C943F000C943F0064
:100020000C943F000C943F000C943F000C943F0054
:100030000C943F000C943F000C943F000C943F0044
:100040000C943F000C943F000C943F000C943F0034
:100050000C943F0011241FBECFE5D8E0DEBFCDBF1A
:1000600010E0A0E6B0E0E4EEF1E002C005900D92F1
:10007000A836B107D9F70E94BF000C94F0000C9489
:1000800000001F920F920FB60F9211242F938F939F
:100090009F93EF93FF9382B3806282BB2FEF89E639
:1000A00098E1215080409040E1F700C0000082B309
:1000B0008F7D82BBE0916000F0916100808180645F
:1000C0008083FF91EF919F918F912F910F900FBEA1
:1000D0000F901F9018951F920F920FB60F92112438
:1000E0002F938F939F93EF93FF9382B3806482BB90
:1000F0002FEF89E698E1215080409040E1F700C061
:10010000000082B38F7B82BBE0916000F0916100C0
:10011000808180688083FF91EF919F918F912F91D3
:100120000F900FBE0F901F9018951F920F920FB651
:100130000F9211242F938F939F93EF93FF9382B38A
:10014000806882BB2FEF89E698E121508040904083
:10015000E1F700C0000082B38F7782BBE0916000BE
:10016000F0916100808180628083FF91EF919F9187
:100170008F912F910F900FBE0F901F901895E091C7
:100180006600F0916700808181608083E091660065
:10019000F091670080818D7F8083E0916600F0910F
:1001A0006700808188608083E0916600F09167003D
:1001B000808184608083E0916400F091650080819B
:1001C0008F7B8083E0916200F09163008081806E7C
:1001D00080838FB780688FBF81B38C6E81BBFFCF68
:0401E000F894FFCFC1
:0801E4005A005B0054005500B5
:00000001FF
